{"abi":[{"type":"constructor","inputs":[{"name":"builder","type":"address","internalType":"address"}],"stateMutability":"nonpayable"},{"type":"fallback","stateMutability":"nonpayable"},{"type":"function","name":"BUILDER","inputs":[],"outputs":[{"name":"","type":"address","internalType":"address"}],"stateMutability":"view"},{"type":"function","name":"get","inputs":[],"outputs":[{"name":"flashblockIndex","type":"uint8","internalType":"uint8"},{"name":"blockNumber","type":"uint48","internalType":"uint48"}],"stateMutability":"view"},{"type":"error","name":"InvalidCalldata","inputs":[]},{"type":"error","name":"OnlyBuilder","inputs":[]}],"bytecode":{"object":"0x60a060405234801561001057600080fd5b5060405161025538038061025583398101604081905261002f91610040565b6001600160a01b0316608052610070565b60006020828403121561005257600080fd5b81516001600160a01b038116811461006957600080fd5b9392505050565b6080516101c461009160003960008181604e015261014101526101c46000f3fe608060405234801561001057600080fd5b50600436106100365760003560e01c80636d4ce63c1461010f578063ecfd1b631461013c575b3373ffffffffffffffffffffffffffffffffffffffff7f000000000000000000000000000000000000000000000000000000000000000016146100a5576040517f357a555d00000000000000000000000000000000000000000000000000000000815260040160405180910390fd5b600136146100df576040517f8129bbcd00000000000000000000000000000000000000000000000000000000815260040160405180910390fd5b60003660008181106100f3576100f3610188565b9091013560f81c4360081b66ffffffffffff0016176000819055005b600054600881901c6040805160ff909316835265ffffffffffff9091166020830152015b60405180910390f35b6101637f000000000000000000000000000000000000000000000000000000000000000081565b60405173ffffffffffffffffffffffffffffffffffffffff9091168152602001610133565b7f4e487b7100000000000000000000000000000000000000000000000000000000600052603260045260246000fdfea164736f6c634300080f000a","linkReferences":{}},"methodIdentifiers":{"BUILDER()":"ecfd1b63","get()":"6d4ce63c"},"storageLayout":{"storage":[{"astId":39142,"contract":"src/L2/FlashblockIndex.sol:FlashblockIndex","label":"_packed","offset":0,"slot":"0","type":"t_uint256"}],"types":{"t_uint256":{"encoding":"inplace","label":"uint256","numberOfBytes":"32"}}},"userdoc":{"version":1,"kind":"user","methods":{"BUILDER()":{"notice":"The authorized builder address, set at deploy time."},"constructor":{"notice":"Constructor."},"get()":{"notice":"Returns the last stored flashblock index and its associated block number."}},"errors":{"InvalidCalldata()":[{"notice":"Thrown when calldata is not exactly 1 byte."}],"OnlyBuilder()":[{"notice":"Thrown when the caller is not the authorized builder."}]},"notice":"Stores the current flashblock index alongside block.number."},"devdoc":{"version":1,"kind":"dev","details":"The builder calls this via fallback with 1 byte of calldata (the index as uint8).      Both values are manually packed into a single uint256 to guarantee 1 SSTORE per write.","methods":{"constructor":{"params":{"builder":"The address authorized to update the flashblock index."}},"get()":{"returns":{"blockNumber":"The block number at which the index was set.","flashblockIndex":"The flashblock index."}}},"title":"FlashblockIndex"},"id":19}